{
	"data": {
		"bytecode": {
			"linkReferences": {},
			"object": "60806040523480156200001157600080fd5b5060405162000d0f38038062000d0f83398181016040528101906200003791906200022d565b336000806101000a81548173ffffffffffffffffffffffffffffffffffffffff021916908373ffffffffffffffffffffffffffffffffffffffff1602179055508060019081620000889190620004c9565b5050620005b0565b6000604051905090565b600080fd5b600080fd5b600080fd5b600080fd5b6000601f19601f8301169050919050565b7f4e487b7100000000000000000000000000000000000000000000000000000000600052604160045260246000fd5b620000f982620000ae565b810181811067ffffffffffffffff821117156200011b576200011a620000bf565b5b80604052505050565b60006200013062000090565b90506200013e8282620000ee565b919050565b600067ffffffffffffffff821115620001615762000160620000bf565b5b6200016c82620000ae565b9050602081019050919050565b60005b83811015620001995780820151818401526020810190506200017c565b83811115620001a9576000848401525b50505050565b6000620001c6620001c08462000143565b62000124565b905082815260208101848484011115620001e557620001e4620000a9565b5b620001f284828562000179565b509392505050565b600082601f830112620002125762000211620000a4565b5b815162000224848260208601620001af565b91505092915050565b6000602082840312156200024657620002456200009a565b5b600082015167ffffffffffffffff8111156200026757620002666200009f565b5b6200027584828501620001fa565b91505092915050565b600081519050919050565b7f4e487b7100000000000000000000000000000000000000000000000000000000600052602260045260246000fd5b60006002820490506001821680620002d157607f821691505b602082108103620002e757620002e662000289565b5b50919050565b60008190508160005260206000209050919050565b60006020601f8301049050919050565b600082821b905092915050565b600060088302620003517fffffffffffffffffffffffffffffffffffffffffffffffffffffffffffffffff8262000312565b6200035d868362000312565b95508019841693508086168417925050509392505050565b6000819050919050565b6000819050919050565b6000620003aa620003a46200039e8462000375565b6200037f565b62000375565b9050919050565b6000819050919050565b620003c68362000389565b620003de620003d582620003b1565b8484546200031f565b825550505050565b600090565b620003f5620003e6565b62000402818484620003bb565b505050565b5b818110156200042a576200041e600082620003eb565b60018101905062000408565b5050565b601f82111562000479576200044381620002ed565b6200044e8462000302565b810160208510156200045e578190505b620004766200046d8562000302565b83018262000407565b50505b505050565b600082821c905092915050565b60006200049e600019846008026200047e565b1980831691505092915050565b6000620004b983836200048b565b9150826002028217905092915050565b620004d4826200027e565b67ffffffffffffffff811115620004f057620004ef620000bf565b5b620004fc8254620002b8565b620005098282856200042e565b600060209050601f8311600181146200054157600084156200052c578287015190505b620005388582620004ab565b865550620005a8565b601f1984166200055186620002ed565b60005b828110156200057b5784890151825560018201915060208501945060208101905062000554565b868310156200059b578489015162000597601f8916826200048b565b8355505b6001600288020188555050505b505050505050565b61074f80620005c06000396000f3fe608060405234801561001057600080fd5b506004361061004c5760003560e01c806327a659b81461005157806392dcef091461006f578063aa7fc3211461008b578063d13264e1146100a9575b600080fd5b6100596100d9565b6040516100669190610469565b60405180910390f35b610089600480360381019061008491906104b5565b610167565b005b6100936102e7565b6040516100a09190610523565b60405180910390f35b6100c360048036038101906100be91906104b5565b61030b565b6040516100d091906105fc565b60405180910390f35b600180546100e69061064d565b80601f01602080910402602001604051908101604052809291908181526020018280546101129061064d565b801561015f5780601f106101345761010080835404028352916020019161015f565b820191906000526020600020905b81548152906001019060200180831161014257829003601f168201915b505050505081565b600260003373ffffffffffffffffffffffffffffffffffffffff1673ffffffffffffffffffffffffffffffffffffffff16815260200190815260200160002060009054906101000a900460ff16156101f4576040517f08c379a00000000000000000000000000000000000000000000000000000000081526004016101eb906106ca565b60405180910390fd5b6003600082600381111561020b5761020a6106ea565b5b600381111561021d5761021c6106ea565b5b8152602001908152602001600020339080600181540180825580915050600190039060005260206000200160009091909190916101000a81548173ffffffffffffffffffffffffffffffffffffffff021916908373ffffffffffffffffffffffffffffffffffffffff1602179055506001600260003373ffffffffffffffffffffffffffffffffffffffff1673ffffffffffffffffffffffffffffffffffffffff16815260200190815260200160002060006101000a81548160ff02191690831515021790555050565b60008054906101000a900473ffffffffffffffffffffffffffffffffffffffff1681565b606060036000836003811115610324576103236106ea565b5b6003811115610336576103356106ea565b5b81526020019081526020016000208054806020026020016040519081016040528092919081815260200182805480156103c457602002820191906000526020600020905b8160009054906101000a900473ffffffffffffffffffffffffffffffffffffffff1673ffffffffffffffffffffffffffffffffffffffff168152602001906001019080831161037a575b50505050509050919050565b600081519050919050565b600082825260208201905092915050565b60005b8381101561040a5780820151818401526020810190506103ef565b83811115610419576000848401525b50505050565b6000601f19601f8301169050919050565b600061043b826103d0565b61044581856103db565b93506104558185602086016103ec565b61045e8161041f565b840191505092915050565b600060208201905081810360008301526104838184610430565b905092915050565b600080fd5b6004811061049d57600080fd5b50565b6000813590506104af81610490565b92915050565b6000602082840312156104cb576104ca61048b565b5b60006104d9848285016104a0565b91505092915050565b600073ffffffffffffffffffffffffffffffffffffffff82169050919050565b600061050d826104e2565b9050919050565b61051d81610502565b82525050565b60006020820190506105386000830184610514565b92915050565b600081519050919050565b600082825260208201905092915050565b6000819050602082019050919050565b61057381610502565b82525050565b6000610585838361056a565b60208301905092915050565b6000602082019050919050565b60006105a98261053e565b6105b38185610549565b93506105be8361055a565b8060005b838110156105ef5781516105d68882610579565b97506105e183610591565b9250506001810190506105c2565b5085935050505092915050565b60006020820190508181036000830152610616818461059e565b905092915050565b7f4e487b7100000000000000000000000000000000000000000000000000000000600052602260045260246000fd5b6000600282049050600182168061066557607f821691505b6020821081036106785761067761061e565b5b50919050565b7f4a6120766f746f75000000000000000000000000000000000000000000000000600082015250565b60006106b46008836103db565b91506106bf8261067e565b602082019050919050565b600060208201905081810360008301526106e3816106a7565b9050919050565b7f4e487b7100000000000000000000000000000000000000000000000000000000600052602160045260246000fdfea26469706673582212204ee43ee958d538a2c2249baf940943ff511e1bd8c2b3fdb883df2f49fd1989c964736f6c634300080f0033",
			"opcodes": "PUSH1 0x80 PUSH1 0x40 MSTORE CALLVALUE DUP1 ISZERO PUSH3 0x11 JUMPI PUSH1 0x0 DUP1 REVERT JUMPDEST POP PUSH1 0x40 MLOAD PUSH3 0xD0F CODESIZE SUB DUP1 PUSH3 0xD0F DUP4 CODECOPY DUP2 DUP2 ADD PUSH1 0x40 MSTORE DUP2 ADD SWAP1 PUSH3 0x37 SWAP2 SWAP1 PUSH3 0x22D JUMP JUMPDEST CALLER PUSH1 0x0 DUP1 PUSH2 0x100 EXP DUP2 SLOAD DUP2 PUSH20 0xFFFFFFFFFFFFFFFFFFFFFFFFFFFFFFFFFFFFFFFF MUL NOT AND SWAP1 DUP4 PUSH20 0xFFFFFFFFFFFFFFFFFFFFFFFFFFFFFFFFFFFFFFFF AND MUL OR SWAP1 SSTORE POP DUP1 PUSH1 0x1 SWAP1 DUP2 PUSH3 0x88 SWAP2 SWAP1 PUSH3 0x4C9 JUMP JUMPDEST POP POP PUSH3 0x5B0 JUMP JUMPDEST PUSH1 0x0 PUSH1 0x40 MLOAD SWAP1 POP SWAP1 JUMP JUMPDEST PUSH1 0x0 DUP1 REVERT JUMPDEST PUSH1 0x0 DUP1 REVERT JUMPDEST PUSH1 0x0 DUP1 REVERT JUMPDEST PUSH1 0x0 DUP1 REVERT JUMPDEST PUSH1 0x0 PUSH1 0x1F NOT PUSH1 0x1F DUP4 ADD AND SWAP1 POP SWAP2 SWAP1 POP JUMP JUMPDEST PUSH32 0x4E487B7100000000000000000000000000000000000000000000000000000000 PUSH1 0x0 MSTORE PUSH1 0x41 PUSH1 0x4 MSTORE PUSH1 0x24 PUSH1 0x0 REVERT JUMPDEST PUSH3 0xF9 DUP3 PUSH3 0xAE JUMP JUMPDEST DUP2 ADD DUP2 DUP2 LT PUSH8 0xFFFFFFFFFFFFFFFF DUP3 GT OR ISZERO PUSH3 0x11B JUMPI PUSH3 0x11A PUSH3 0xBF JUMP JUMPDEST JUMPDEST DUP1 PUSH1 0x40 MSTORE POP POP POP JUMP JUMPDEST PUSH1 0x0 PUSH3 0x130 PUSH3 0x90 JUMP JUMPDEST SWAP1 POP PUSH3 0x13E DUP3 DUP3 PUSH3 0xEE JUMP JUMPDEST SWAP2 SWAP1 POP JUMP JUMPDEST PUSH1 0x0 PUSH8 0xFFFFFFFFFFFFFFFF DUP3 GT ISZERO PUSH3 0x161 JUMPI PUSH3 0x160 PUSH3 0xBF JUMP JUMPDEST JUMPDEST PUSH3 0x16C DUP3 PUSH3 0xAE JUMP JUMPDEST SWAP1 POP PUSH1 0x20 DUP2 ADD SWAP1 POP SWAP2 SWAP1 POP JUMP JUMPDEST PUSH1 0x0 JUMPDEST DUP4 DUP2 LT ISZERO PUSH3 0x199 JUMPI DUP1 DUP3 ADD MLOAD DUP2 DUP5 ADD MSTORE PUSH1 0x20 DUP2 ADD SWAP1 POP PUSH3 0x17C JUMP JUMPDEST DUP4 DUP2 GT ISZERO PUSH3 0x1A9 JUMPI PUSH1 0x0 DUP5 DUP5 ADD MSTORE JUMPDEST POP POP POP POP JUMP JUMPDEST PUSH1 0x0 PUSH3 0x1C6 PUSH3 0x1C0 DUP5 PUSH3 0x143 JUMP JUMPDEST PUSH3 0x124 JUMP JUMPDEST SWAP1 POP DUP3 DUP2 MSTORE PUSH1 0x20 DUP2 ADD DUP5 DUP5 DUP5 ADD GT ISZERO PUSH3 0x1E5 JUMPI PUSH3 0x1E4 PUSH3 0xA9 JUMP JUMPDEST JUMPDEST PUSH3 0x1F2 DUP5 DUP3 DUP6 PUSH3 0x179 JUMP JUMPDEST POP SWAP4 SWAP3 POP POP POP JUMP JUMPDEST PUSH1 0x0 DUP3 PUSH1 0x1F DUP4 ADD SLT PUSH3 0x212 JUMPI PUSH3 0x211 PUSH3 0xA4 JUMP JUMPDEST JUMPDEST DUP2 MLOAD PUSH3 0x224 DUP5 DUP3 PUSH1 0x20 DUP7 ADD PUSH3 0x1AF JUMP JUMPDEST SWAP2 POP POP SWAP3 SWAP2 POP POP JUMP JUMPDEST PUSH1 0x0 PUSH1 0x20 DUP3 DUP5 SUB SLT ISZERO PUSH3 0x246 JUMPI PUSH3 0x245 PUSH3 0x9A JUMP JUMPDEST JUMPDEST PUSH1 0x0 DUP3 ADD MLOAD PUSH8 0xFFFFFFFFFFFFFFFF DUP2 GT ISZERO PUSH3 0x267 JUMPI PUSH3 0x266 PUSH3 0x9F JUMP JUMPDEST JUMPDEST PUSH3 0x275 DUP5 DUP3 DUP6 ADD PUSH3 0x1FA JUMP JUMPDEST SWAP2 POP POP SWAP3 SWAP2 POP POP JUMP JUMPDEST PUSH1 0x0 DUP2 MLOAD SWAP1 POP SWAP2 SWAP1 POP JUMP JUMPDEST PUSH32 0x4E487B7100000000000000000000000000000000000000000000000000000000 PUSH1 0x0 MSTORE PUSH1 0x22 PUSH1 0x4 MSTORE PUSH1 0x24 PUSH1 0x0 REVERT JUMPDEST PUSH1 0x0 PUSH1 0x2 DUP3 DIV SWAP1 POP PUSH1 0x1 DUP3 AND DUP1 PUSH3 0x2D1 JUMPI PUSH1 0x7F DUP3 AND SWAP2 POP JUMPDEST PUSH1 0x20 DUP3 LT DUP2 SUB PUSH3 0x2E7 JUMPI PUSH3 0x2E6 PUSH3 0x289 JUMP JUMPDEST JUMPDEST POP SWAP2 SWAP1 POP JUMP JUMPDEST PUSH1 0x0 DUP2 SWAP1 POP DUP2 PUSH1 0x0 MSTORE PUSH1 0x20 PUSH1 0x0 KECCAK256 SWAP1 POP SWAP2 SWAP1 POP JUMP JUMPDEST PUSH1 0x0 PUSH1 0x20 PUSH1 0x1F DUP4 ADD DIV SWAP1 POP SWAP2 SWAP1 POP JUMP JUMPDEST PUSH1 0x0 DUP3 DUP3 SHL SWAP1 POP SWAP3 SWAP2 POP POP JUMP JUMPDEST PUSH1 0x0 PUSH1 0x8 DUP4 MUL PUSH3 0x351 PUSH32 0xFFFFFFFFFFFFFFFFFFFFFFFFFFFFFFFFFFFFFFFFFFFFFFFFFFFFFFFFFFFFFFFF DUP3 PUSH3 0x312 JUMP JUMPDEST PUSH3 0x35D DUP7 DUP4 PUSH3 0x312 JUMP JUMPDEST SWAP6 POP DUP1 NOT DUP5 AND SWAP4 POP DUP1 DUP7 AND DUP5 OR SWAP3 POP POP POP SWAP4 SWAP3 POP POP POP JUMP JUMPDEST PUSH1 0x0 DUP2 SWAP1 POP SWAP2 SWAP1 POP JUMP JUMPDEST PUSH1 0x0 DUP2 SWAP1 POP SWAP2 SWAP1 POP JUMP JUMPDEST PUSH1 0x0 PUSH3 0x3AA PUSH3 0x3A4 PUSH3 0x39E DUP5 PUSH3 0x375 JUMP JUMPDEST PUSH3 0x37F JUMP JUMPDEST PUSH3 0x375 JUMP JUMPDEST SWAP1 POP SWAP2 SWAP1 POP JUMP JUMPDEST PUSH1 0x0 DUP2 SWAP1 POP SWAP2 SWAP1 POP JUMP JUMPDEST PUSH3 0x3C6 DUP4 PUSH3 0x389 JUMP JUMPDEST PUSH3 0x3DE PUSH3 0x3D5 DUP3 PUSH3 0x3B1 JUMP JUMPDEST DUP5 DUP5 SLOAD PUSH3 0x31F JUMP JUMPDEST DUP3 SSTORE POP POP POP POP JUMP JUMPDEST PUSH1 0x0 SWAP1 JUMP JUMPDEST PUSH3 0x3F5 PUSH3 0x3E6 JUMP JUMPDEST PUSH3 0x402 DUP2 DUP5 DUP5 PUSH3 0x3BB JUMP JUMPDEST POP POP POP JUMP JUMPDEST JUMPDEST DUP2 DUP2 LT ISZERO PUSH3 0x42A JUMPI PUSH3 0x41E PUSH1 0x0 DUP3 PUSH3 0x3EB JUMP JUMPDEST PUSH1 0x1 DUP2 ADD SWAP1 POP PUSH3 0x408 JUMP JUMPDEST POP POP JUMP JUMPDEST PUSH1 0x1F DUP3 GT ISZERO PUSH3 0x479 JUMPI PUSH3 0x443 DUP2 PUSH3 0x2ED JUMP JUMPDEST PUSH3 0x44E DUP5 PUSH3 0x302 JUMP JUMPDEST DUP2 ADD PUSH1 0x20 DUP6 LT ISZERO PUSH3 0x45E JUMPI DUP2 SWAP1 POP JUMPDEST PUSH3 0x476 PUSH3 0x46D DUP6 PUSH3 0x302 JUMP JUMPDEST DUP4 ADD DUP3 PUSH3 0x407 JUMP JUMPDEST POP POP JUMPDEST POP POP POP JUMP JUMPDEST PUSH1 0x0 DUP3 DUP3 SHR SWAP1 POP SWAP3 SWAP2 POP POP JUMP JUMPDEST PUSH1 0x0 PUSH3 0x49E PUSH1 0x0 NOT DUP5 PUSH1 0x8 MUL PUSH3 0x47E JUMP JUMPDEST NOT DUP1 DUP4 AND SWAP2 POP POP SWAP3 SWAP2 POP POP JUMP JUMPDEST PUSH1 0x0 PUSH3 0x4B9 DUP4 DUP4 PUSH3 0x48B JUMP JUMPDEST SWAP2 POP DUP3 PUSH1 0x2 MUL DUP3 OR SWAP1 POP SWAP3 SWAP2 POP POP JUMP JUMPDEST PUSH3 0x4D4 DUP3 PUSH3 0x27E JUMP JUMPDEST PUSH8 0xFFFFFFFFFFFFFFFF DUP2 GT ISZERO PUSH3 0x4F0 JUMPI PUSH3 0x4EF PUSH3 0xBF JUMP JUMPDEST JUMPDEST PUSH3 0x4FC DUP3 SLOAD PUSH3 0x2B8 JUMP JUMPDEST PUSH3 0x509 DUP3 DUP3 DUP6 PUSH3 0x42E JUMP JUMPDEST PUSH1 0x0 PUSH1 0x20 SWAP1 POP PUSH1 0x1F DUP4 GT PUSH1 0x1 DUP2 EQ PUSH3 0x541 JUMPI PUSH1 0x0 DUP5 ISZERO PUSH3 0x52C JUMPI DUP3 DUP8 ADD MLOAD SWAP1 POP JUMPDEST PUSH3 0x538 DUP6 DUP3 PUSH3 0x4AB JUMP JUMPDEST DUP7 SSTORE POP PUSH3 0x5A8 JUMP JUMPDEST PUSH1 0x1F NOT DUP5 AND PUSH3 0x551 DUP7 PUSH3 0x2ED JUMP JUMPDEST PUSH1 0x0 JUMPDEST DUP3 DUP2 LT ISZERO PUSH3 0x57B JUMPI DUP5 DUP10 ADD MLOAD DUP3 SSTORE PUSH1 0x1 DUP3 ADD SWAP2 POP PUSH1 0x20 DUP6 ADD SWAP5 POP PUSH1 0x20 DUP2 ADD SWAP1 POP PUSH3 0x554 JUMP JUMPDEST DUP7 DUP4 LT ISZERO PUSH3 0x59B JUMPI DUP5 DUP10 ADD MLOAD PUSH3 0x597 PUSH1 0x1F DUP10 AND DUP3 PUSH3 0x48B JUMP JUMPDEST DUP4 SSTORE POP JUMPDEST PUSH1 0x1 PUSH1 0x2 DUP9 MUL ADD DUP9 SSTORE POP POP POP JUMPDEST POP POP POP POP POP POP JUMP JUMPDEST PUSH2 0x74F DUP1 PUSH3 0x5C0 PUSH1 0x0 CODECOPY PUSH1 0x0 RETURN INVALID PUSH1 0x80 PUSH1 0x40 MSTORE CALLVALUE DUP1 ISZERO PUSH2 0x10 JUMPI PUSH1 0x0 DUP1 REVERT JUMPDEST POP PUSH1 0x4 CALLDATASIZE LT PUSH2 0x4C JUMPI PUSH1 0x0 CALLDATALOAD PUSH1 0xE0 SHR DUP1 PUSH4 0x27A659B8 EQ PUSH2 0x51 JUMPI DUP1 PUSH4 0x92DCEF09 EQ PUSH2 0x6F JUMPI DUP1 PUSH4 0xAA7FC321 EQ PUSH2 0x8B JUMPI DUP1 PUSH4 0xD13264E1 EQ PUSH2 0xA9 JUMPI JUMPDEST PUSH1 0x0 DUP1 REVERT JUMPDEST PUSH2 0x59 PUSH2 0xD9 JUMP JUMPDEST PUSH1 0x40 MLOAD PUSH2 0x66 SWAP2 SWAP1 PUSH2 0x469 JUMP JUMPDEST PUSH1 0x40 MLOAD DUP1 SWAP2 SUB SWAP1 RETURN JUMPDEST PUSH2 0x89 PUSH1 0x4 DUP1 CALLDATASIZE SUB DUP2 ADD SWAP1 PUSH2 0x84 SWAP2 SWAP1 PUSH2 0x4B5 JUMP JUMPDEST PUSH2 0x167 JUMP JUMPDEST STOP JUMPDEST PUSH2 0x93 PUSH2 0x2E7 JUMP JUMPDEST PUSH1 0x40 MLOAD PUSH2 0xA0 SWAP2 SWAP1 PUSH2 0x523 JUMP JUMPDEST PUSH1 0x40 MLOAD DUP1 SWAP2 SUB SWAP1 RETURN JUMPDEST PUSH2 0xC3 PUSH1 0x4 DUP1 CALLDATASIZE SUB DUP2 ADD SWAP1 PUSH2 0xBE SWAP2 SWAP1 PUSH2 0x4B5 JUMP JUMPDEST PUSH2 0x30B JUMP JUMPDEST PUSH1 0x40 MLOAD PUSH2 0xD0 SWAP2 SWAP1 PUSH2 0x5FC JUMP JUMPDEST PUSH1 0x40 MLOAD DUP1 SWAP2 SUB SWAP1 RETURN JUMPDEST PUSH1 0x1 DUP1 SLOAD PUSH2 0xE6 SWAP1 PUSH2 0x64D JUMP JUMPDEST DUP1 PUSH1 0x1F ADD PUSH1 0x20 DUP1 SWAP2 DIV MUL PUSH1 0x20 ADD PUSH1 0x40 MLOAD SWAP1 DUP2 ADD PUSH1 0x40 MSTORE DUP1 SWAP3 SWAP2 SWAP1 DUP2 DUP2 MSTORE PUSH1 0x20 ADD DUP3 DUP1 SLOAD PUSH2 0x112 SWAP1 PUSH2 0x64D JUMP JUMPDEST DUP1 ISZERO PUSH2 0x15F JUMPI DUP1 PUSH1 0x1F LT PUSH2 0x134 JUMPI PUSH2 0x100 DUP1 DUP4 SLOAD DIV MUL DUP4 MSTORE SWAP2 PUSH1 0x20 ADD SWAP2 PUSH2 0x15F JUMP JUMPDEST DUP3 ADD SWAP2 SWAP1 PUSH1 0x0 MSTORE PUSH1 0x20 PUSH1 0x0 KECCAK256 SWAP1 JUMPDEST DUP2 SLOAD DUP2 MSTORE SWAP1 PUSH1 0x1 ADD SWAP1 PUSH1 0x20 ADD DUP1 DUP4 GT PUSH2 0x142 JUMPI DUP3 SWAP1 SUB PUSH1 0x1F AND DUP3 ADD SWAP2 JUMPDEST POP POP POP POP POP DUP2 JUMP JUMPDEST PUSH1 0x2 PUSH1 0x0 CALLER PUSH20 0xFFFFFFFFFFFFFFFFFFFFFFFFFFFFFFFFFFFFFFFF AND PUSH20 0xFFFFFFFFFFFFFFFFFFFFFFFFFFFFFFFFFFFFFFFF AND DUP2 MSTORE PUSH1 0x20 ADD SWAP1 DUP2 MSTORE PUSH1 0x20 ADD PUSH1 0x0 KECCAK256 PUSH1 0x0 SWAP1 SLOAD SWAP1 PUSH2 0x100 EXP SWAP1 DIV PUSH1 0xFF AND ISZERO PUSH2 0x1F4 JUMPI PUSH1 0x40 MLOAD PUSH32 0x8C379A000000000000000000000000000000000000000000000000000000000 DUP2 MSTORE PUSH1 0x4 ADD PUSH2 0x1EB SWAP1 PUSH2 0x6CA JUMP JUMPDEST PUSH1 0x40 MLOAD DUP1 SWAP2 SUB SWAP1 REVERT JUMPDEST PUSH1 0x3 PUSH1 0x0 DUP3 PUSH1 0x3 DUP2 GT ISZERO PUSH2 0x20B JUMPI PUSH2 0x20A PUSH2 0x6EA JUMP JUMPDEST JUMPDEST PUSH1 0x3 DUP2 GT ISZERO PUSH2 0x21D JUMPI PUSH2 0x21C PUSH2 0x6EA JUMP JUMPDEST JUMPDEST DUP2 MSTORE PUSH1 0x20 ADD SWAP1 DUP2 MSTORE PUSH1 0x20 ADD PUSH1 0x0 KECCAK256 CALLER SWAP1 DUP1 PUSH1 0x1 DUP2 SLOAD ADD DUP1 DUP3 SSTORE DUP1 SWAP2 POP POP PUSH1 0x1 SWAP1 SUB SWAP1 PUSH1 0x0 MSTORE PUSH1 0x20 PUSH1 0x0 KECCAK256 ADD PUSH1 0x0 SWAP1 SWAP2 SWAP1 SWAP2 SWAP1 SWAP2 PUSH2 0x100 EXP DUP2 SLOAD DUP2 PUSH20 0xFFFFFFFFFFFFFFFFFFFFFFFFFFFFFFFFFFFFFFFF MUL NOT AND SWAP1 DUP4 PUSH20 0xFFFFFFFFFFFFFFFFFFFFFFFFFFFFFFFFFFFFFFFF AND MUL OR SWAP1 SSTORE POP PUSH1 0x1 PUSH1 0x2 PUSH1 0x0 CALLER PUSH20 0xFFFFFFFFFFFFFFFFFFFFFFFFFFFFFFFFFFFFFFFF AND PUSH20 0xFFFFFFFFFFFFFFFFFFFFFFFFFFFFFFFFFFFFFFFF AND DUP2 MSTORE PUSH1 0x20 ADD SWAP1 DUP2 MSTORE PUSH1 0x20 ADD PUSH1 0x0 KECCAK256 PUSH1 0x0 PUSH2 0x100 EXP DUP2 SLOAD DUP2 PUSH1 0xFF MUL NOT AND SWAP1 DUP4 ISZERO ISZERO MUL OR SWAP1 SSTORE POP POP JUMP JUMPDEST PUSH1 0x0 DUP1 SLOAD SWAP1 PUSH2 0x100 EXP SWAP1 DIV PUSH20 0xFFFFFFFFFFFFFFFFFFFFFFFFFFFFFFFFFFFFFFFF AND DUP2 JUMP JUMPDEST PUSH1 0x60 PUSH1 0x3 PUSH1 0x0 DUP4 PUSH1 0x3 DUP2 GT ISZERO PUSH2 0x324 JUMPI PUSH2 0x323 PUSH2 0x6EA JUMP JUMPDEST JUMPDEST PUSH1 0x3 DUP2 GT ISZERO PUSH2 0x336 JUMPI PUSH2 0x335 PUSH2 0x6EA JUMP JUMPDEST JUMPDEST DUP2 MSTORE PUSH1 0x20 ADD SWAP1 DUP2 MSTORE PUSH1 0x20 ADD PUSH1 0x0 KECCAK256 DUP1 SLOAD DUP1 PUSH1 0x20 MUL PUSH1 0x20 ADD PUSH1 0x40 MLOAD SWAP1 DUP2 ADD PUSH1 0x40 MSTORE DUP1 SWAP3 SWAP2 SWAP1 DUP2 DUP2 MSTORE PUSH1 0x20 ADD DUP3 DUP1 SLOAD DUP1 ISZERO PUSH2 0x3C4 JUMPI PUSH1 0x20 MUL DUP3 ADD SWAP2 SWAP1 PUSH1 0x0 MSTORE PUSH1 0x20 PUSH1 0x0 KECCAK256 SWAP1 JUMPDEST DUP2 PUSH1 0x0 SWAP1 SLOAD SWAP1 PUSH2 0x100 EXP SWAP1 DIV PUSH20 0xFFFFFFFFFFFFFFFFFFFFFFFFFFFFFFFFFFFFFFFF AND PUSH20 0xFFFFFFFFFFFFFFFFFFFFFFFFFFFFFFFFFFFFFFFF AND DUP2 MSTORE PUSH1 0x20 ADD SWAP1 PUSH1 0x1 ADD SWAP1 DUP1 DUP4 GT PUSH2 0x37A JUMPI JUMPDEST POP POP POP POP POP SWAP1 POP SWAP2 SWAP1 POP JUMP JUMPDEST PUSH1 0x0 DUP2 MLOAD SWAP1 POP SWAP2 SWAP1 POP JUMP JUMPDEST PUSH1 0x0 DUP3 DUP3 MSTORE PUSH1 0x20 DUP3 ADD SWAP1 POP SWAP3 SWAP2 POP POP JUMP JUMPDEST PUSH1 0x0 JUMPDEST DUP4 DUP2 LT ISZERO PUSH2 0x40A JUMPI DUP1 DUP3 ADD MLOAD DUP2 DUP5 ADD MSTORE PUSH1 0x20 DUP2 ADD SWAP1 POP PUSH2 0x3EF JUMP JUMPDEST DUP4 DUP2 GT ISZERO PUSH2 0x419 JUMPI PUSH1 0x0 DUP5 DUP5 ADD MSTORE JUMPDEST POP POP POP POP JUMP JUMPDEST PUSH1 0x0 PUSH1 0x1F NOT PUSH1 0x1F DUP4 ADD AND SWAP1 POP SWAP2 SWAP1 POP JUMP JUMPDEST PUSH1 0x0 PUSH2 0x43B DUP3 PUSH2 0x3D0 JUMP JUMPDEST PUSH2 0x445 DUP2 DUP6 PUSH2 0x3DB JUMP JUMPDEST SWAP4 POP PUSH2 0x455 DUP2 DUP6 PUSH1 0x20 DUP7 ADD PUSH2 0x3EC JUMP JUMPDEST PUSH2 0x45E DUP2 PUSH2 0x41F JUMP JUMPDEST DUP5 ADD SWAP2 POP POP SWAP3 SWAP2 POP POP JUMP JUMPDEST PUSH1 0x0 PUSH1 0x20 DUP3 ADD SWAP1 POP DUP2 DUP2 SUB PUSH1 0x0 DUP4 ADD MSTORE PUSH2 0x483 DUP2 DUP5 PUSH2 0x430 JUMP JUMPDEST SWAP1 POP SWAP3 SWAP2 POP POP JUMP JUMPDEST PUSH1 0x0 DUP1 REVERT JUMPDEST PUSH1 0x4 DUP2 LT PUSH2 0x49D JUMPI PUSH1 0x0 DUP1 REVERT JUMPDEST POP JUMP JUMPDEST PUSH1 0x0 DUP2 CALLDATALOAD SWAP1 POP PUSH2 0x4AF DUP2 PUSH2 0x490 JUMP JUMPDEST SWAP3 SWAP2 POP POP JUMP JUMPDEST PUSH1 0x0 PUSH1 0x20 DUP3 DUP5 SUB SLT ISZERO PUSH2 0x4CB JUMPI PUSH2 0x4CA PUSH2 0x48B JUMP JUMPDEST JUMPDEST PUSH1 0x0 PUSH2 0x4D9 DUP5 DUP3 DUP6 ADD PUSH2 0x4A0 JUMP JUMPDEST SWAP2 POP POP SWAP3 SWAP2 POP POP JUMP JUMPDEST PUSH1 0x0 PUSH20 0xFFFFFFFFFFFFFFFFFFFFFFFFFFFFFFFFFFFFFFFF DUP3 AND SWAP1 POP SWAP2 SWAP1 POP JUMP JUMPDEST PUSH1 0x0 PUSH2 0x50D DUP3 PUSH2 0x4E2 JUMP JUMPDEST SWAP1 POP SWAP2 SWAP1 POP JUMP JUMPDEST PUSH2 0x51D DUP2 PUSH2 0x502 JUMP JUMPDEST DUP3 MSTORE POP POP JUMP JUMPDEST PUSH1 0x0 PUSH1 0x20 DUP3 ADD SWAP1 POP PUSH2 0x538 PUSH1 0x0 DUP4 ADD DUP5 PUSH2 0x514 JUMP JUMPDEST SWAP3 SWAP2 POP POP JUMP JUMPDEST PUSH1 0x0 DUP2 MLOAD SWAP1 POP SWAP2 SWAP1 POP JUMP JUMPDEST PUSH1 0x0 DUP3 DUP3 MSTORE PUSH1 0x20 DUP3 ADD SWAP1 POP SWAP3 SWAP2 POP POP JUMP JUMPDEST PUSH1 0x0 DUP2 SWAP1 POP PUSH1 0x20 DUP3 ADD SWAP1 POP SWAP2 SWAP1 POP JUMP JUMPDEST PUSH2 0x573 DUP2 PUSH2 0x502 JUMP JUMPDEST DUP3 MSTORE POP POP JUMP JUMPDEST PUSH1 0x0 PUSH2 0x585 DUP4 DUP4 PUSH2 0x56A JUMP JUMPDEST PUSH1 0x20 DUP4 ADD SWAP1 POP SWAP3 SWAP2 POP POP JUMP JUMPDEST PUSH1 0x0 PUSH1 0x20 DUP3 ADD SWAP1 POP SWAP2 SWAP1 POP JUMP JUMPDEST PUSH1 0x0 PUSH2 0x5A9 DUP3 PUSH2 0x53E JUMP JUMPDEST PUSH2 0x5B3 DUP2 DUP6 PUSH2 0x549 JUMP JUMPDEST SWAP4 POP PUSH2 0x5BE DUP4 PUSH2 0x55A JUMP JUMPDEST DUP1 PUSH1 0x0 JUMPDEST DUP4 DUP2 LT ISZERO PUSH2 0x5EF JUMPI DUP2 MLOAD PUSH2 0x5D6 DUP9 DUP3 PUSH2 0x579 JUMP JUMPDEST SWAP8 POP PUSH2 0x5E1 DUP4 PUSH2 0x591 JUMP JUMPDEST SWAP3 POP POP PUSH1 0x1 DUP2 ADD SWAP1 POP PUSH2 0x5C2 JUMP JUMPDEST POP DUP6 SWAP4 POP POP POP POP SWAP3 SWAP2 POP POP JUMP JUMPDEST PUSH1 0x0 PUSH1 0x20 DUP3 ADD SWAP1 POP DUP2 DUP2 SUB PUSH1 0x0 DUP4 ADD MSTORE PUSH2 0x616 DUP2 DUP5 PUSH2 0x59E JUMP JUMPDEST SWAP1 POP SWAP3 SWAP2 POP POP JUMP JUMPDEST PUSH32 0x4E487B7100000000000000000000000000000000000000000000000000000000 PUSH1 0x0 MSTORE PUSH1 0x22 PUSH1 0x4 MSTORE PUSH1 0x24 PUSH1 0x0 REVERT JUMPDEST PUSH1 0x0 PUSH1 0x2 DUP3 DIV SWAP1 POP PUSH1 0x1 DUP3 AND DUP1 PUSH2 0x665 JUMPI PUSH1 0x7F DUP3 AND SWAP2 POP JUMPDEST PUSH1 0x20 DUP3 LT DUP2 SUB PUSH2 0x678 JUMPI PUSH2 0x677 PUSH2 0x61E JUMP JUMPDEST JUMPDEST POP SWAP2 SWAP1 POP JUMP JUMPDEST PUSH32 0x4A6120766F746F75000000000000000000000000000000000000000000000000 PUSH1 0x0 DUP3 ADD MSTORE POP JUMP JUMPDEST PUSH1 0x0 PUSH2 0x6B4 PUSH1 0x8 DUP4 PUSH2 0x3DB JUMP JUMPDEST SWAP2 POP PUSH2 0x6BF DUP3 PUSH2 0x67E JUMP JUMPDEST PUSH1 0x20 DUP3 ADD SWAP1 POP SWAP2 SWAP1 POP JUMP JUMPDEST PUSH1 0x0 PUSH1 0x20 DUP3 ADD SWAP1 POP DUP2 DUP2 SUB PUSH1 0x0 DUP4 ADD MSTORE PUSH2 0x6E3 DUP2 PUSH2 0x6A7 JUMP JUMPDEST SWAP1 POP SWAP2 SWAP1 POP JUMP JUMPDEST PUSH32 0x4E487B7100000000000000000000000000000000000000000000000000000000 PUSH1 0x0 MSTORE PUSH1 0x21 PUSH1 0x4 MSTORE PUSH1 0x24 PUSH1 0x0 REVERT INVALID LOG2 PUSH5 0x6970667358 0x22 SLT KECCAK256 0x4E 0xE4 RETURNDATACOPY 0xE9 PC 0xD5 CODESIZE LOG2 0xC2 0x24 SWAP12 0xAF SWAP5 MULMOD NUMBER SELFDESTRUCT MLOAD 0x1E SHL 0xD8 0xC2 0xB3 REVERT 0xB8 DUP4 0xDF 0x2F 0x49 REVERT NOT DUP10 0xC9 PUSH5 0x736F6C6343 STOP ADDMOD 0xF STOP CALLER "
		},
		"gasEstimates": {
			"creation": {
				"codeDepositCost": "374200",
				"executionCost": "infinite",
				"totalCost": "infinite"
			},
			"external": {
				"pauta()": "infinite",
				"relator()": "2533",
				"verResultado(uint8)": "infinite",
				"votar(uint8)": "75672"
			}
		},
		"methodIdentifiers": {
			"pauta()": "27a659b8",
			"relator()": "aa7fc321",
			"verResultado(uint8)": "d13264e1",
			"votar(uint8)": "92dcef09"
		}
	},
	"abi": [
		{
			"inputs": [
				{
					"internalType": "string",
					"name": "_pauta",
					"type": "string"
				}
			],
			"stateMutability": "nonpayable",
			"type": "constructor"
		},
		{
			"inputs": [],
			"name": "pauta",
			"outputs": [
				{
					"internalType": "string",
					"name": "",
					"type": "string"
				}
			],
			"stateMutability": "view",
			"type": "function"
		},
		{
			"inputs": [],
			"name": "relator",
			"outputs": [
				{
					"internalType": "address",
					"name": "",
					"type": "address"
				}
			],
			"stateMutability": "view",
			"type": "function"
		},
		{
			"inputs": [
				{
					"internalType": "enum PrimaryContract.Opcao",
					"name": "_opcao",
					"type": "uint8"
				}
			],
			"name": "verResultado",
			"outputs": [
				{
					"internalType": "address[]",
					"name": "",
					"type": "address[]"
				}
			],
			"stateMutability": "view",
			"type": "function"
		},
		{
			"inputs": [
				{
					"internalType": "enum PrimaryContract.Opcao",
					"name": "_opcao",
					"type": "uint8"
				}
			],
			"name": "votar",
			"outputs": [],
			"stateMutability": "nonpayable",
			"type": "function"
		}
	]
}